0000000001MARK JEZEKIAH NAYRE      D003000000
0000000001MARK JEZEKIAH NAYRE      W000500000
0000000001MARK JEZEKIAH NAYRE      D002000000
0000000002RAINAH CASSANDRA NAYRE   D005000000
0000000002RAINAH CASSANDRA NAYRE   W001000000
0000000003MARLON JAMES NAYRE       D003000000
